{
  "contractName": "MyV2FlashLoan",
  "abi": [
    {
      "inputs": [
        {
          "internalType": "contract ILendingPoolAddressesProvider",
          "name": "_addressProvider",
          "type": "address"
        }
      ],
      "stateMutability": "nonpayable",
      "type": "constructor"
    },
    {
      "inputs": [],
      "name": "ADDRESSES_PROVIDER",
      "outputs": [
        {
          "internalType": "contract ILendingPoolAddressesProvider",
          "name": "",
          "type": "address"
        }
      ],
      "stateMutability": "view",
      "type": "function",
      "constant": true
    },
    {
      "inputs": [],
      "name": "LENDING_POOL",
      "outputs": [
        {
          "internalType": "contract ILendingPool",
          "name": "",
          "type": "address"
        }
      ],
      "stateMutability": "view",
      "type": "function",
      "constant": true
    },
    {
      "inputs": [
        {
          "internalType": "address[]",
          "name": "assets",
          "type": "address[]"
        },
        {
          "internalType": "uint256[]",
          "name": "amounts",
          "type": "uint256[]"
        },
        {
          "internalType": "uint256[]",
          "name": "premiums",
          "type": "uint256[]"
        },
        {
          "internalType": "address",
          "name": "initiator",
          "type": "address"
        },
        {
          "internalType": "bytes",
          "name": "params",
          "type": "bytes"
        }
      ],
      "name": "executeOperation",
      "outputs": [
        {
          "internalType": "bool",
          "name": "",
          "type": "bool"
        }
      ],
      "stateMutability": "nonpayable",
      "type": "function"
    },
    {
      "inputs": [],
      "name": "myFlashLoanCall",
      "outputs": [],
      "stateMutability": "nonpayable",
      "type": "function"
    }
  ],
  "bytecode": "0x60c060405234801561001057600080fd5b50604051610d91380380610d918339818101604052602081101561003357600080fd5b8101908080519060200190929190505050808073ffffffffffffffffffffffffffffffffffffffff1660808173ffffffffffffffffffffffffffffffffffffffff1660601b815250508073ffffffffffffffffffffffffffffffffffffffff16630261bf8b6040518163ffffffff1660e01b815260040160206040518083038186803b1580156100c257600080fd5b505afa1580156100d6573d6000803e3d6000fd5b505050506040513d60208110156100ec57600080fd5b810190808051906020019092919050505073ffffffffffffffffffffffffffffffffffffffff1660a08173ffffffffffffffffffffffffffffffffffffffff1660601b81525050505060805160601c60a05160601c610c296101686000398061032952806103fa52806109515250806102735250610c296000f3fe608060405234801561001057600080fd5b506004361061004c5760003560e01c80630542975c14610051578063920f5c8414610085578063b4dcfc7714610233578063f03b532914610267575b600080fd5b610059610271565b604051808273ffffffffffffffffffffffffffffffffffffffff16815260200191505060405180910390f35b61021b600480360360a081101561009b57600080fd5b81019080803590602001906401000000008111156100b857600080fd5b8201836020820111156100ca57600080fd5b803590602001918460208302840111640100000000831117156100ec57600080fd5b90919293919293908035906020019064010000000081111561010d57600080fd5b82018360208201111561011f57600080fd5b8035906020019184602083028401116401000000008311171561014157600080fd5b90919293919293908035906020019064010000000081111561016257600080fd5b82018360208201111561017457600080fd5b8035906020019184602083028401116401000000008311171561019657600080fd5b9091929391929390803573ffffffffffffffffffffffffffffffffffffffff169060200190929190803590602001906401000000008111156101d757600080fd5b8201836020820111156101e957600080fd5b8035906020019184600183028401116401000000008311171561020b57600080fd5b9091929391929390505050610295565b60405180821515815260200191505060405180910390f35b61023b6103f8565b604051808273ffffffffffffffffffffffffffffffffffffffff16815260200191505060405180910390f35b61026f61041c565b005b7f000000000000000000000000000000000000000000000000000000000000000081565b600080600090505b8a8a90508110156103e65760006102e18888848181106102b957fe5b905060200201358b8b858181106102cc57fe5b90506020020135610b6b90919063ffffffff16565b90508b8b838181106102ef57fe5b9050602002013573ffffffffffffffffffffffffffffffffffffffff1673ffffffffffffffffffffffffffffffffffffffff1663095ea7b37f0000000000000000000000000000000000000000000000000000000000000000836040518363ffffffff1660e01b8152600401808373ffffffffffffffffffffffffffffffffffffffff16815260200182815260200192505050602060405180830381600087803b15801561039c57600080fd5b505af11580156103b0573d6000803e3d6000fd5b505050506040513d60208110156103c657600080fd5b81019080805190602001909291905050505050808060010191505061029d565b50600190509998505050505050505050565b7f000000000000000000000000000000000000000000000000000000000000000081565b60003090506060600767ffffffffffffffff8111801561043b57600080fd5b5060405190808252806020026020018201604052801561046a5781602001602082028036833780820191505090505b50905073b597cd8d3217ea6477232f9217fa70837ff667af8160008151811061048f57fe5b602002602001019073ffffffffffffffffffffffffffffffffffffffff16908173ffffffffffffffffffffffffffffffffffffffff1681525050732d12186fbb9f9a8c28b3ffdd4c42920f8539d738816001815181106104eb57fe5b602002602001019073ffffffffffffffffffffffffffffffffffffffff16908173ffffffffffffffffffffffffffffffffffffffff168152505073ff795577d9ac8bd7d90ee22b6c1703490b6512fd8160028151811061054757fe5b602002602001019073ffffffffffffffffffffffffffffffffffffffff16908173ffffffffffffffffffffffffffffffffffffffff168152505073075a36ba8846c6b6f53644fdd3bf17e5151789dc816003815181106105a357fe5b602002602001019073ffffffffffffffffffffffffffffffffffffffff16908173ffffffffffffffffffffffffffffffffffffffff168152505073b7c325266ec274feb1354021d27fa3e3379d840d816004815181106105ff57fe5b602002602001019073ffffffffffffffffffffffffffffffffffffffff16908173ffffffffffffffffffffffffffffffffffffffff168152505073ad5ce863ae3e4e9394ab43d4ba0d80f419f617898160058151811061065b57fe5b602002602001019073ffffffffffffffffffffffffffffffffffffffff16908173ffffffffffffffffffffffffffffffffffffffff1681525050737fdb81b0b8a010dd4ffc57c3fecbf145ba8bd947816006815181106106b757fe5b602002602001019073ffffffffffffffffffffffffffffffffffffffff16908173ffffffffffffffffffffffffffffffffffffffff16815250506060600767ffffffffffffffff8111801561070b57600080fd5b5060405190808252806020026020018201604052801561073a5781602001602082028036833780820191505090505b509050670de0b6b3a76400008160008151811061075357fe5b602002602001018181525050670de0b6b3a76400008160018151811061077557fe5b602002602001018181525050670de0b6b3a76400008160028151811061079757fe5b602002602001018181525050670de0b6b3a7640000816003815181106107b957fe5b602002602001018181525050670de0b6b3a7640000816004815181106107db57fe5b602002602001018181525050670de0b6b3a7640000816005815181106107fd57fe5b602002602001018181525050670de0b6b3a76400008160068151811061081f57fe5b6020026020010181815250506060600767ffffffffffffffff8111801561084557600080fd5b506040519080825280602002602001820160405280156108745781602001602082028036833780820191505090505b50905060008160008151811061088657fe5b6020026020010181815250506000816001815181106108a157fe5b6020026020010181815250506000816002815181106108bc57fe5b6020026020010181815250506000816003815181106108d757fe5b6020026020010181815250506000816004815181106108f257fe5b60200260200101818152505060008160058151811061090d57fe5b60200260200101818152505060008160068151811061092857fe5b6020026020010181815250506000309050606060405180602001604052806000815250905060007f000000000000000000000000000000000000000000000000000000000000000073ffffffffffffffffffffffffffffffffffffffff1663ab9c4b5d888888888888886040518863ffffffff1660e01b8152600401808873ffffffffffffffffffffffffffffffffffffffff1681526020018060200180602001806020018773ffffffffffffffffffffffffffffffffffffffff168152602001806020018661ffff16815260200185810385528b818151815260200191508051906020019060200280838360005b83811015610a32578082015181840152602081019050610a17565b5050505090500185810384528a818151815260200191508051906020019060200280838360005b83811015610a74578082015181840152602081019050610a59565b50505050905001858103835289818151815260200191508051906020019060200280838360005b83811015610ab6578082015181840152602081019050610a9b565b50505050905001858103825287818151815260200191508051906020019080838360005b83811015610af5578082015181840152602081019050610ada565b50505050905090810190601f168015610b225780820380516001836020036101000a031916815260200191505b509b505050505050505050505050600060405180830381600087803b158015610b4a57600080fd5b505af1158015610b5e573d6000803e3d6000fd5b5050505050505050505050565b600080828401905083811015610be9576040517f08c379a000000000000000000000000000000000000000000000000000000000815260040180806020018281038252601b8152602001807f536166654d6174683a206164646974696f6e206f766572666c6f77000000000081525060200191505060405180910390fd5b809150509291505056fea264697066735822122044483c8706addb8e77e9b97dfdc0ed46c69e8cbb3c2ea6dd3f716907734eda0064736f6c634300060c0033",
  "immutableReferences": {
    "19": [
      {
        "length": 32,
        "start": 627
      }
    ],
    "21": [
      {
        "length": 32,
        "start": 809
      },
      {
        "length": 32,
        "start": 1018
      },
      {
        "length": 32,
        "start": 2385
      }
    ]
  },
  "source": "// SPDX-License-Identifier: agpl-3.0\npragma solidity 0.6.12;\n\nimport { FlashLoanReceiverBase } from \"./FlashLoanReceiverBase.sol\";\nimport { ILendingPool, ILendingPoolAddressesProvider, IERC20 } from \"./Interfaces-fl.sol\";\nimport { SafeMath } from \"./Libraries-fl.sol\";\n\n/** \n    !!!\n    Never keep funds permanently on your FlashLoanReceiverBase contract as they could be \n    exposed to a 'griefing' attack, where the stored funds are used by an attacker.\n    !!!\n */\ncontract MyV2FlashLoan is FlashLoanReceiverBase {\n    using SafeMath for uint256;\n\n    constructor(ILendingPoolAddressesProvider _addressProvider) FlashLoanReceiverBase(_addressProvider) public {}\n\n    /**\n        This function is called after your contract has received the flash loaned amount\n     */\n    function executeOperation(\n        address[] calldata assets,\n        uint256[] calldata amounts,\n        uint256[] calldata premiums,\n        address initiator,\n        bytes calldata params\n    )\n        external\n        override\n        returns (bool)\n    {\n\n        //\n        // This contract now has the funds requested.\n        // Your logic goes here.\n        //\n\n        // At the end of your logic above, this contract owes\n        // the flashloaned amounts + premiums.\n        // Therefore ensure your contract has enough to repay\n        // these amounts.\n\n        // Approve the LendingPool contract allowance to *pull* the owed amount\n        for (uint i = 0; i < assets.length; i++) {\n            uint amountOwing = amounts[i].add(premiums[i]);\n            IERC20(assets[i]).approve(address(LENDING_POOL), amountOwing);\n        }\n\n        return true;\n    }\n\n    function myFlashLoanCall() public {\n        address receiverAddress = address(this);\n\n        address[] memory assets = new address[](7);\n        assets[0] = address(0xB597cd8D3217ea6477232F9217fa70837ff667Af); // Kovan AAVE\n        assets[1] = address(0x2d12186Fbb9f9a8C28B3FfdD4c42920f8539D738); // Kovan BAT\n        assets[2] = address(0xFf795577d9AC8bD7D90Ee22b6C1703490b6512FD); // Kovan DAI\n        assets[3] = address(0x075A36BA8846C6B6F53644fDd3bf17E5151789DC); // Kovan UNI\n        assets[4] = address(0xb7c325266ec274fEb1354021D27FA3E3379D840d); // Kovan YFI\n        assets[5] = address(0xAD5ce863aE3E4E9394Ab43d4ba0D80f419F61789); // Kovan LINK\n        assets[6] = address(0x7FDb81B0b8a010dd4FFc57C3fecbf145BA8Bd947); // Kovan SNX\n\n        uint256[] memory amounts = new uint256[](7);\n        amounts[0] = 1 ether;\n        amounts[1] = 1 ether;\n        amounts[2] = 1 ether;\n        amounts[3] = 1 ether;\n        amounts[4] = 1 ether;\n        amounts[5] = 1 ether;\n        amounts[6] = 1 ether;\n\n        // 0 = no debt, 1 = stable, 2 = variable\n        uint256[] memory modes = new uint256[](7);\n        modes[0] = 0;\n        modes[1] = 0;\n        modes[2] = 0;\n        modes[3] = 0;\n        modes[4] = 0;\n        modes[5] = 0;\n        modes[6] = 0;\n\n        address onBehalfOf = address(this);\n        bytes memory params = \"\";\n        uint16 referralCode = 0;\n\n        LENDING_POOL.flashLoan(\n            receiverAddress,\n            assets,\n            amounts,\n            modes,\n            onBehalfOf,\n            params,\n            referralCode\n        );\n    }\n}\n",
  "sourcePath": "/home/brahma/apps/mktmake/refi/src/contracts/MyV2FlashLoan.sol",
  "compiler": {
    "name": "solc",
    "version": "0.6.12+commit.27d51765.Emscripten.clang"
  },
  "schemaVersion": "3.2.3",
  "updatedAt": "2021-02-07T19:08:12.741Z",
  "networkType": "ethereum",
  "devdoc": {
    "kind": "dev",
    "methods": {},
    "version": 1
  },
  "userdoc": {
    "kind": "user",
    "methods": {
      "executeOperation(address[],uint256[],uint256[],address,bytes)": {
        "notice": "This function is called after your contract has received the flash loaned amount"
      }
    },
    "notice": "!!! Never keep funds permanently on your FlashLoanReceiverBase contract as they could be  exposed to a 'griefing' attack, where the stored funds are used by an attacker. !!!",
    "version": 1
  }
}